{
  "address": "0x2Ccb435Fab99EAF41c2DF6628851bcc64a3eA508",
  "abi": [
    {
      "inputs": [
        {
          "internalType": "string[]",
          "name": "_companies",
          "type": "string[]"
        },
        {
          "internalType": "address[]",
          "name": "_addresses",
          "type": "address[]"
        }
      ],
      "stateMutability": "nonpayable",
      "type": "constructor"
    },
    {
      "anonymous": false,
      "inputs": [
        {
          "indexed": false,
          "internalType": "address",
          "name": "_occupant",
          "type": "address"
        },
        {
          "indexed": false,
          "internalType": "string",
          "name": "_company",
          "type": "string"
        },
        {
          "indexed": false,
          "internalType": "uint8",
          "name": "_slot",
          "type": "uint8"
        },
        {
          "indexed": false,
          "internalType": "uint8",
          "name": "_roomSpace",
          "type": "uint8"
        }
      ],
      "name": "Canceled",
      "type": "event"
    },
    {
      "anonymous": false,
      "inputs": [
        {
          "indexed": false,
          "internalType": "address",
          "name": "_occupant",
          "type": "address"
        },
        {
          "indexed": false,
          "internalType": "string",
          "name": "_company",
          "type": "string"
        },
        {
          "indexed": false,
          "internalType": "uint8",
          "name": "_slot",
          "type": "uint8"
        },
        {
          "indexed": false,
          "internalType": "uint8",
          "name": "_roomSpace",
          "type": "uint8"
        }
      ],
      "name": "Reserved",
      "type": "event"
    },
    {
      "anonymous": false,
      "inputs": [
        {
          "indexed": false,
          "internalType": "string",
          "name": "_company",
          "type": "string"
        },
        {
          "indexed": false,
          "internalType": "address",
          "name": "_address",
          "type": "address"
        }
      ],
      "name": "Whitelisted",
      "type": "event"
    },
    {
      "inputs": [],
      "name": "MAX_ROOM",
      "outputs": [
        {
          "internalType": "uint8",
          "name": "",
          "type": "uint8"
        }
      ],
      "stateMutability": "view",
      "type": "function"
    },
    {
      "inputs": [],
      "name": "MAX_SLOT",
      "outputs": [
        {
          "internalType": "uint8",
          "name": "",
          "type": "uint8"
        }
      ],
      "stateMutability": "view",
      "type": "function"
    },
    {
      "inputs": [
        {
          "internalType": "string",
          "name": "_company",
          "type": "string"
        },
        {
          "internalType": "address",
          "name": "_address",
          "type": "address"
        }
      ],
      "name": "addWhitelist",
      "outputs": [],
      "stateMutability": "nonpayable",
      "type": "function"
    },
    {
      "inputs": [
        {
          "internalType": "string",
          "name": "_company",
          "type": "string"
        },
        {
          "internalType": "uint8",
          "name": "_slot",
          "type": "uint8"
        },
        {
          "internalType": "uint8",
          "name": "_roomSpace",
          "type": "uint8"
        }
      ],
      "name": "cancelRoomSpace",
      "outputs": [],
      "stateMutability": "nonpayable",
      "type": "function"
    },
    {
      "inputs": [],
      "name": "getCompanies",
      "outputs": [
        {
          "internalType": "string[]",
          "name": "",
          "type": "string[]"
        }
      ],
      "stateMutability": "view",
      "type": "function"
    },
    {
      "inputs": [
        {
          "internalType": "string",
          "name": "_company",
          "type": "string"
        },
        {
          "internalType": "uint8",
          "name": "_slot",
          "type": "uint8"
        },
        {
          "internalType": "uint8",
          "name": "_roomSpace",
          "type": "uint8"
        }
      ],
      "name": "reserveRoomSpace",
      "outputs": [],
      "stateMutability": "nonpayable",
      "type": "function"
    },
    {
      "inputs": [
        {
          "internalType": "string",
          "name": "",
          "type": "string"
        },
        {
          "internalType": "uint8",
          "name": "",
          "type": "uint8"
        },
        {
          "internalType": "uint256",
          "name": "",
          "type": "uint256"
        }
      ],
      "name": "roomlist",
      "outputs": [
        {
          "internalType": "bool",
          "name": "booked",
          "type": "bool"
        },
        {
          "internalType": "address",
          "name": "owner",
          "type": "address"
        }
      ],
      "stateMutability": "view",
      "type": "function"
    },
    {
      "inputs": [
        {
          "internalType": "string",
          "name": "",
          "type": "string"
        },
        {
          "internalType": "address",
          "name": "",
          "type": "address"
        }
      ],
      "name": "whitelist",
      "outputs": [
        {
          "internalType": "bool",
          "name": "",
          "type": "bool"
        }
      ],
      "stateMutability": "view",
      "type": "function"
    }
  ],
  "transactionHash": "0x26206c9dec8c6841c006d1e524108428a4311a383c0127a5b846353b13222fb5",
  "args": [
    [
      "COKE",
      "PEPSI"
    ],
    [
      "0x70997970C51812dc3A010C7d01b50e0d17dc79C8",
      "0x3C44CdDdB6a900fa2b585dd299e03d12FA4293BC"
    ]
  ],
  "solcInputHash": "1bd622d5ec1cf09a4a46e8d34108c168",
  "bytecode": "0x60806040523480156200001157600080fd5b506040516200118438038062001184833981016040819052620000349162000308565b81516200004990600290602085019062000113565b5060005b82518110156200010a576001808483815181106200007b57634e487b7160e01b600052603260045260246000fd5b60200260200101516040516200009291906200043f565b90815260200160405180910390206000848481518110620000c357634e487b7160e01b600052603260045260246000fd5b6020908102919091018101516001600160a01b03168252810191909152604001600020805460ff191691151591909117905580620001018162000526565b9150506200004d565b50505062000564565b82805482825590600052602060002090810192821562000165579160200282015b828111156200016557825180516200015491849160209091019062000177565b509160200191906001019062000134565b506200017392915062000202565b5090565b8280546200018590620004e9565b90600052602060002090601f016020900481019282620001a95760008555620001f4565b82601f10620001c457805160ff1916838001178555620001f4565b82800160010185558215620001f4579182015b82811115620001f4578251825591602001919060010190620001d7565b506200017392915062000223565b80821115620001735760006200021982826200023a565b5060010162000202565b5b8082111562000173576000815560010162000224565b5080546200024890620004e9565b6000825580601f1062000259575050565b601f01602090049060005260206000209081019062000279919062000223565b50565b600082601f8301126200028d578081fd5b81516020620002a6620002a08362000490565b6200045d565b80838252828201915082860187848660051b8901011115620002c6578586fd5b855b85811015620002fb5781516001600160a01b0381168114620002e8578788fd5b84529284019290840190600101620002c8565b5090979650505050505050565b60008060408084860312156200031c578283fd5b83516001600160401b038082111562000333578485fd5b818601915086601f83011262000347578485fd5b815160206200035a620002a08362000490565b8083825282820191508286018b848660051b89010111156200037a57898afd5b895b858110156200040a5781518781111562000394578b8cfd5b8801603f81018e13620003a5578b8cfd5b8581015188811115620003bc57620003bc6200054e565b620003d0601f8201601f191688016200045d565b8181528f8c838501011115620003e4578d8efd5b620003f5828983018e8601620004b6565b8652505092840192908401906001016200037c565b50509189015191975090945050508083111562000425578384fd5b505062000435858286016200027c565b9150509250929050565b6000825162000453818460208701620004b6565b9190910192915050565b604051601f8201601f191681016001600160401b03811182821017156200048857620004886200054e565b604052919050565b60006001600160401b03821115620004ac57620004ac6200054e565b5060051b60200190565b60005b83811015620004d3578181015183820152602001620004b9565b83811115620004e3576000848401525b50505050565b600181811c90821680620004fe57607f821691505b602082108114156200052057634e487b7160e01b600052602260045260246000fd5b50919050565b60006000198214156200054757634e487b7160e01b81526011600452602481fd5b5060010190565b634e487b7160e01b600052604160045260246000fd5b610c1080620005746000396000f3fe608060405234801561001057600080fd5b50600436106100885760003560e01c8063c42a8cff1161005b578063c42a8cff14610105578063eaca3e611461011f578063f4a96d221461016d578063fd9b61361461017557600080fd5b80630199abce1461008d5780630c0b6691146100a25780637224a401146100c0578063b8f12daf146100d3575b600080fd5b6100a061009b36600461093b565b610188565b005b6100aa610306565b6040516100b79190610ace565b60405180910390f35b6100a06100ce3660046109eb565b6103df565b6100e66100e1366004610996565b610620565b6040805192151583526001600160a01b039091166020830152016100b7565b61010d600a81565b60405160ff90911681526020016100b7565b61015d61012d36600461093b565b81516020818401810180516001825292820194820194909420919093529091526000908152604090205460ff1681565b60405190151581526020016100b7565b61010d600881565b6100a06101833660046109eb565b61066d565b6001826040516101989190610a73565b9081526040805160209281900383019020336000908152925290205460ff166102015760405162461bcd60e51b81526020600482015260166024820152754f7065726174696f6e206e6f7420616c6c6f7765642160501b60448201526064015b60405180910390fd5b6001826040516102119190610a73565b90815260408051602092819003830190206001600160a01b0384166000908152925290205460ff16156102865760405162461bcd60e51b815260206004820152601c60248201527f4164647265737320616c72656164792077686974656c6973746564210000000060448201526064016101f8565b600180836040516102979190610a73565b90815260408051602092819003830181206001600160a01b038616600090815293529120805460ff1916921515929092179091557f9708c549f753b882994a07fb0326b5882eb86e39e5ae87c42a49377246197869906102fa9084908490610b2f565b60405180910390a15050565b60606002805480602002602001604051908101604052809291908181526020016000905b828210156103d657838290600052602060002001805461034990610b89565b80601f016020809104026020016040519081016040528092919081815260200182805461037590610b89565b80156103c25780601f10610397576101008083540402835291602001916103c2565b820191906000526020600020905b8154815290600101906020018083116103a557829003601f168201915b50505050508152602001906001019061032a565b50505050905090565b81600860ff82161061042b5760405162461bcd60e51b8152602060048201526015602482015274536c6f74206973206f7574206f662072616e67652160581b60448201526064016101f8565b81600a60ff8216106104775760405162461bcd60e51b8152602060048201526015602482015274526f6f6d206973206f7574206f662072616e67652160581b60448201526064016101f8565b6001856040516104879190610a73565b9081526040805160209281900383019020336000908152925290205460ff166104f25760405162461bcd60e51b815260206004820152601c60248201527f4e6f7420616c6c6f77656420746f207265736572766520726f6f6d210000000060448201526064016101f8565b60016000866040516105049190610a73565b908152602001604051809103902060008660ff1660ff1681526020019081526020016000208460ff16600a811061054b57634e487b7160e01b600052603260045260246000fd5b01805460ff1916911515919091179055604051339060009061056e908890610a73565b908152602001604051809103902060008660ff1660ff1681526020019081526020016000208460ff16600a81106105b557634e487b7160e01b600052603260045260246000fd5b0180546001600160a01b039290921661010002610100600160a81b03199092169190911790556040517f4e1891727ee35a3ceb1ba877124c34ba45ee786f217d7d40d9dad77fd683813190610611903390889088908890610a8f565b60405180910390a15050505050565b8251602081850181018051600080835293830183880120915290528281526040902081600a811061065057600080fd5b015460ff8116935061010090046001600160a01b03169150839050565b81600860ff8216106106b95760405162461bcd60e51b8152602060048201526015602482015274536c6f74206973206f7574206f662072616e67652160581b60448201526064016101f8565b81600a60ff8216106107055760405162461bcd60e51b8152602060048201526015602482015274526f6f6d206973206f7574206f662072616e67652160581b60448201526064016101f8565b6001856040516107159190610a73565b9081526040805160209281900383019020336000908152925290205460ff166107805760405162461bcd60e51b815260206004820152601b60248201527f4e6f7420616c6c6f77656420746f2063616e63656c20726f6f6d21000000000060448201526064016101f8565b600080866040516107919190610a73565b908152602001604051809103902060008660ff1660ff1681526020019081526020016000208460ff16600a81106107d857634e487b7160e01b600052603260045260246000fd5b01805460ff191691151591909117905560405160009081906107fb908890610a73565b908152602001604051809103902060008660ff1660ff1681526020019081526020016000208460ff16600a811061084257634e487b7160e01b600052603260045260246000fd5b0180546001600160a01b039290921661010002610100600160a81b03199092169190911790556040517f57958b0fcd4d01b2a77f5bafca296cac447f05a395ac45f724918534a6be678690610611903390889088908890610a8f565b600082601f8301126108ae578081fd5b813567ffffffffffffffff808211156108c9576108c9610bc4565b604051601f8301601f19908116603f011681019082821181831017156108f1576108f1610bc4565b81604052838152866020858801011115610909578485fd5b8360208701602083013792830160200193909352509392505050565b803560ff8116811461093657600080fd5b919050565b6000806040838503121561094d578182fd5b823567ffffffffffffffff811115610963578283fd5b61096f8582860161089e565b92505060208301356001600160a01b038116811461098b578182fd5b809150509250929050565b6000806000606084860312156109aa578081fd5b833567ffffffffffffffff8111156109c0578182fd5b6109cc8682870161089e565b9350506109db60208501610925565b9150604084013590509250925092565b6000806000606084860312156109ff578283fd5b833567ffffffffffffffff811115610a15578384fd5b610a218682870161089e565b935050610a3060208501610925565b9150610a3e60408501610925565b90509250925092565b60008151808452610a5f816020860160208601610b59565b601f01601f19169290920160200192915050565b60008251610a85818460208701610b59565b9190910192915050565b6001600160a01b0385168152608060208201819052600090610ab390830186610a47565b60ff9485166040840152929093166060909101529392505050565b6000602080830181845280855180835260408601915060408160051b8701019250838701855b82811015610b2257603f19888603018452610b10858351610a47565b94509285019290850190600101610af4565b5092979650505050505050565b604081526000610b426040830185610a47565b905060018060a01b03831660208301529392505050565b60005b83811015610b74578181015183820152602001610b5c565b83811115610b83576000848401525b50505050565b600181811c90821680610b9d57607f821691505b60208210811415610bbe57634e487b7160e01b600052602260045260246000fd5b50919050565b634e487b7160e01b600052604160045260246000fdfea2646970667358221220fb255ff60ce136e876ae46e0fded3217aa0db0c3438ccf875ec2826029bd6ddd64736f6c63430008040033",
  "devdoc": {
    "kind": "dev",
    "methods": {},
    "version": 1
  },
  "userdoc": {
    "kind": "user",
    "methods": {},
    "version": 1
  },
  "storageLayout": {
    "storage": [
      {
        "astId": 22,
        "contract": "contracts/RoomBooking.sol:RoomBooking",
        "label": "roomlist",
        "offset": 0,
        "slot": "0",
        "type": "t_mapping(t_string_memory_ptr,t_mapping(t_uint8,t_array(t_struct(Room)7_storage)10_storage))"
      },
      {
        "astId": 28,
        "contract": "contracts/RoomBooking.sol:RoomBooking",
        "label": "whitelist",
        "offset": 0,
        "slot": "1",
        "type": "t_mapping(t_string_memory_ptr,t_mapping(t_address,t_bool))"
      },
      {
        "astId": 31,
        "contract": "contracts/RoomBooking.sol:RoomBooking",
        "label": "companies",
        "offset": 0,
        "slot": "2",
        "type": "t_array(t_string_storage)dyn_storage"
      }
    ],
    "types": {
      "t_address": {
        "encoding": "inplace",
        "label": "address",
        "numberOfBytes": "20"
      },
      "t_array(t_string_storage)dyn_storage": {
        "base": "t_string_storage",
        "encoding": "dynamic_array",
        "label": "string[]",
        "numberOfBytes": "32"
      },
      "t_array(t_struct(Room)7_storage)10_storage": {
        "base": "t_struct(Room)7_storage",
        "encoding": "inplace",
        "label": "struct RoomBooking.Room[10]",
        "numberOfBytes": "320"
      },
      "t_bool": {
        "encoding": "inplace",
        "label": "bool",
        "numberOfBytes": "1"
      },
      "t_mapping(t_address,t_bool)": {
        "encoding": "mapping",
        "key": "t_address",
        "label": "mapping(address => bool)",
        "numberOfBytes": "32",
        "value": "t_bool"
      },
      "t_mapping(t_string_memory_ptr,t_mapping(t_address,t_bool))": {
        "encoding": "mapping",
        "key": "t_string_memory_ptr",
        "label": "mapping(string => mapping(address => bool))",
        "numberOfBytes": "32",
        "value": "t_mapping(t_address,t_bool)"
      },
      "t_mapping(t_string_memory_ptr,t_mapping(t_uint8,t_array(t_struct(Room)7_storage)10_storage))": {
        "encoding": "mapping",
        "key": "t_string_memory_ptr",
        "label": "mapping(string => mapping(uint8 => struct RoomBooking.Room[10]))",
        "numberOfBytes": "32",
        "value": "t_mapping(t_uint8,t_array(t_struct(Room)7_storage)10_storage)"
      },
      "t_mapping(t_uint8,t_array(t_struct(Room)7_storage)10_storage)": {
        "encoding": "mapping",
        "key": "t_uint8",
        "label": "mapping(uint8 => struct RoomBooking.Room[10])",
        "numberOfBytes": "32",
        "value": "t_array(t_struct(Room)7_storage)10_storage"
      },
      "t_string_memory_ptr": {
        "encoding": "bytes",
        "label": "string",
        "numberOfBytes": "32"
      },
      "t_string_storage": {
        "encoding": "bytes",
        "label": "string",
        "numberOfBytes": "32"
      },
      "t_struct(Room)7_storage": {
        "encoding": "inplace",
        "label": "struct RoomBooking.Room",
        "members": [
          {
            "astId": 4,
            "contract": "contracts/RoomBooking.sol:RoomBooking",
            "label": "booked",
            "offset": 0,
            "slot": "0",
            "type": "t_bool"
          },
          {
            "astId": 6,
            "contract": "contracts/RoomBooking.sol:RoomBooking",
            "label": "owner",
            "offset": 1,
            "slot": "0",
            "type": "t_address"
          }
        ],
        "numberOfBytes": "32"
      },
      "t_uint8": {
        "encoding": "inplace",
        "label": "uint8",
        "numberOfBytes": "1"
      }
    }
  }
}