{
  "address": "0x5FbDB2315678afecb367f032d93F642f64180aa3",
  "abi": [
    {
      "inputs": [
        {
          "internalType": "string[]",
          "name": "_companies",
          "type": "string[]"
        },
        {
          "internalType": "address[]",
          "name": "_addresses",
          "type": "address[]"
        }
      ],
      "stateMutability": "nonpayable",
      "type": "constructor"
    },
    {
      "anonymous": false,
      "inputs": [
        {
          "indexed": false,
          "internalType": "address",
          "name": "_occupant",
          "type": "address"
        },
        {
          "indexed": false,
          "internalType": "string",
          "name": "_company",
          "type": "string"
        },
        {
          "indexed": false,
          "internalType": "uint8",
          "name": "_roomSpace",
          "type": "uint8"
        },
        {
          "indexed": false,
          "internalType": "uint8",
          "name": "_slot",
          "type": "uint8"
        }
      ],
      "name": "Reserved",
      "type": "event"
    },
    {
      "anonymous": false,
      "inputs": [
        {
          "indexed": false,
          "internalType": "address",
          "name": "_address",
          "type": "address"
        },
        {
          "indexed": false,
          "internalType": "string",
          "name": "_company",
          "type": "string"
        }
      ],
      "name": "Whitelisted",
      "type": "event"
    },
    {
      "inputs": [
        {
          "internalType": "address",
          "name": "_address",
          "type": "address"
        },
        {
          "internalType": "string",
          "name": "_company",
          "type": "string"
        }
      ],
      "name": "addWhitelist",
      "outputs": [],
      "stateMutability": "nonpayable",
      "type": "function"
    },
    {
      "inputs": [],
      "name": "getCompanies",
      "outputs": [
        {
          "internalType": "string[]",
          "name": "",
          "type": "string[]"
        }
      ],
      "stateMutability": "view",
      "type": "function"
    },
    {
      "inputs": [],
      "name": "maxRoom",
      "outputs": [
        {
          "internalType": "uint8",
          "name": "",
          "type": "uint8"
        }
      ],
      "stateMutability": "view",
      "type": "function"
    },
    {
      "inputs": [],
      "name": "maxSlot",
      "outputs": [
        {
          "internalType": "uint8",
          "name": "",
          "type": "uint8"
        }
      ],
      "stateMutability": "view",
      "type": "function"
    },
    {
      "inputs": [
        {
          "internalType": "string",
          "name": "_company",
          "type": "string"
        },
        {
          "internalType": "uint8",
          "name": "_roomSpace",
          "type": "uint8"
        },
        {
          "internalType": "uint8",
          "name": "_slot",
          "type": "uint8"
        }
      ],
      "name": "reserveRoomSpace",
      "outputs": [],
      "stateMutability": "nonpayable",
      "type": "function"
    },
    {
      "inputs": [
        {
          "internalType": "string",
          "name": "",
          "type": "string"
        },
        {
          "internalType": "uint8",
          "name": "",
          "type": "uint8"
        },
        {
          "internalType": "uint256",
          "name": "",
          "type": "uint256"
        }
      ],
      "name": "roomlist",
      "outputs": [
        {
          "internalType": "bool",
          "name": "booked",
          "type": "bool"
        },
        {
          "internalType": "string",
          "name": "partnerName",
          "type": "string"
        },
        {
          "internalType": "address",
          "name": "owner",
          "type": "address"
        }
      ],
      "stateMutability": "view",
      "type": "function"
    },
    {
      "inputs": [
        {
          "internalType": "string",
          "name": "",
          "type": "string"
        },
        {
          "internalType": "address",
          "name": "",
          "type": "address"
        }
      ],
      "name": "whitelist",
      "outputs": [
        {
          "internalType": "bool",
          "name": "",
          "type": "bool"
        }
      ],
      "stateMutability": "view",
      "type": "function"
    }
  ],
  "transactionHash": "0xb380ca5713d780145fb92dae30dcc611058ba6a7950eed52ddfeee5cdba7b8bf",
  "args": [
    [
      "COKE",
      "PEPSI"
    ],
    [
      "0x70997970C51812dc3A010C7d01b50e0d17dc79C8",
      "0x3C44CdDdB6a900fa2b585dd299e03d12FA4293BC"
    ]
  ],
  "solcInputHash": "28a59283302575fb9b5e72026f5aed07",
  "bytecode": "0x60806040523480156200001157600080fd5b506040516200116638038062001166833981016040819052620000349162000308565b81516200004990600290602085019062000113565b5060005b82518110156200010a576001808483815181106200007b57634e487b7160e01b600052603260045260246000fd5b60200260200101516040516200009291906200043f565b90815260200160405180910390206000848481518110620000c357634e487b7160e01b600052603260045260246000fd5b6020908102919091018101516001600160a01b03168252810191909152604001600020805460ff191691151591909117905580620001018162000526565b9150506200004d565b50505062000564565b82805482825590600052602060002090810192821562000165579160200282015b828111156200016557825180516200015491849160209091019062000177565b509160200191906001019062000134565b506200017392915062000202565b5090565b8280546200018590620004e9565b90600052602060002090601f016020900481019282620001a95760008555620001f4565b82601f10620001c457805160ff1916838001178555620001f4565b82800160010185558215620001f4579182015b82811115620001f4578251825591602001919060010190620001d7565b506200017392915062000223565b80821115620001735760006200021982826200023a565b5060010162000202565b5b8082111562000173576000815560010162000224565b5080546200024890620004e9565b6000825580601f1062000259575050565b601f01602090049060005260206000209081019062000279919062000223565b50565b600082601f8301126200028d578081fd5b81516020620002a6620002a08362000490565b6200045d565b80838252828201915082860187848660051b8901011115620002c6578586fd5b855b85811015620002fb5781516001600160a01b0381168114620002e8578788fd5b84529284019290840190600101620002c8565b5090979650505050505050565b60008060408084860312156200031c578283fd5b83516001600160401b038082111562000333578485fd5b818601915086601f83011262000347578485fd5b815160206200035a620002a08362000490565b8083825282820191508286018b848660051b89010111156200037a57898afd5b895b858110156200040a5781518781111562000394578b8cfd5b8801603f81018e13620003a5578b8cfd5b8581015188811115620003bc57620003bc6200054e565b620003d0601f8201601f191688016200045d565b8181528f8c838501011115620003e4578d8efd5b620003f5828983018e8601620004b6565b8652505092840192908401906001016200037c565b50509189015191975090945050508083111562000425578384fd5b505062000435858286016200027c565b9150509250929050565b6000825162000453818460208701620004b6565b9190910192915050565b604051601f8201601f191681016001600160401b03811182821017156200048857620004886200054e565b604052919050565b60006001600160401b03821115620004ac57620004ac6200054e565b5060051b60200190565b60005b83811015620004d3578181015183820152602001620004b9565b83811115620004e3576000848401525b50505050565b600181811c90821680620004fe57607f821691505b602082108114156200052057634e487b7160e01b600052602260045260246000fd5b50919050565b60006000198214156200054757634e487b7160e01b81526011600452602481fd5b5060010190565b634e487b7160e01b600052604160045260246000fd5b610bf280620005746000396000f3fe608060405234801561001057600080fd5b506004361061007d5760003560e01c80637224a4011161005b5780637224a401146100cf578063b8f12daf146100e2578063c8691afe14610104578063eaca3e611461010c57600080fd5b80630c0b6691146100825780634149b71b146100a05780635516e9d0146100ba575b600080fd5b61008a61015a565b6040516100979190610aa7565b60405180910390f35b6100a8600a81565b60405160ff9091168152602001610097565b6100cd6100c83660046108ab565b610233565b005b6100cd6100dd366004610998565b6103dd565b6100f56100f0366004610943565b61067a565b60405161009793929190610b08565b6100a8600881565b61014a61011a3660046108f7565b81516020818401810180516001825292820194820194909420919093529091526000908152604090205460ff1681565b6040519015158152602001610097565b60606002805480602002602001604051908101604052809291908181526020016000905b8282101561022a57838290600052602060002001805461019d90610b6b565b80601f01602080910402602001604051908101604052809291908181526020018280546101c990610b6b565b80156102165780601f106101eb57610100808354040283529160200191610216565b820191906000526020600020905b8154815290600101906020018083116101f957829003601f168201915b50505050508152602001906001019061017e565b50505050905090565b6001816040516102439190610a20565b9081526040805160209281900383019020336000908152925290205460ff16156102ca5760405162461bcd60e51b815260206004820152602d60248201527f596f7520617265206e6f7420616c6c6f77656420746f2077686974656c69737460448201526c20616e2061646472657373202160981b60648201526084015b60405180910390fd5b6001816040516102da9190610a20565b90815260408051602092819003830190206001600160a01b0385166000908152925290205460ff161561035d5760405162461bcd60e51b815260206004820152602560248201527f54686973206164647265737320697320616c72656164792077686974656c6973604482015264746564202160d81b60648201526084016102c1565b6001808260405161036e9190610a20565b90815260408051602092819003830181206001600160a01b038716600090815293529120805460ff1916921515929092179091557f3feccebfacde99065c8796a177e49cc8db48e50a6034f441dd9650d7e5b17fa8906103d19084908490610a3c565b60405180910390a15050565b80600860ff8216106104285760405162461bcd60e51b8152602060048201526014602482015273536c6f74206973206f7574206f662072616e676560601b60448201526064016102c1565b6001846040516104389190610a20565b9081526040805160209281900383019020336000908152925290205460ff16156104b25760405162461bcd60e51b815260206004820152602560248201527f596f7520617265206e6f7420616c6c6f77656420746f207265736572766520726044820152646f6f6d202160d81b60648201526084016102c1565b60016000856040516104c49190610a20565b908152602001604051809103902060008460ff1660ff1681526020019081526020016000208460ff166009811061050b57634e487b7160e01b600052603260045260246000fd5b60030201805460ff1916911515919091179055604080518082018252600e81526d7469746c6520706172746e65723160901b60208201529051600090610552908790610a20565b908152602001604051809103902060008460ff1660ff1681526020019081526020016000208460ff166009811061059957634e487b7160e01b600052603260045260246000fd5b6003020160010190805190602001906105b392919061075e565b50336000856040516105c59190610a20565b908152602001604051809103902060008460ff1660ff1681526020019081526020016000208460ff166009811061060c57634e487b7160e01b600052603260045260246000fd5b6003020160020160006101000a8154816001600160a01b0302191690836001600160a01b031602179055507f4e1891727ee35a3ceb1ba877124c34ba45ee786f217d7d40d9dad77fd68381313385858560405161066c9493929190610a68565b60405180910390a150505050565b8251602081850181018051600080835293830183880120915290528281526040902081600981106106aa57600080fd5b60030201805460018201805460ff90921695509193509091506106cc90610b6b565b80601f01602080910402602001604051908101604052809291908181526020018280546106f890610b6b565b80156107455780601f1061071a57610100808354040283529160200191610745565b820191906000526020600020905b81548152906001019060200180831161072857829003601f168201915b505050600290930154919250506001600160a01b031683565b82805461076a90610b6b565b90600052602060002090601f01602090048101928261078c57600085556107d2565b82601f106107a557805160ff19168380011785556107d2565b828001600101855582156107d2579182015b828111156107d25782518255916020019190600101906107b7565b506107de9291506107e2565b5090565b5b808211156107de57600081556001016107e3565b80356001600160a01b038116811461080e57600080fd5b919050565b600082601f830112610823578081fd5b813567ffffffffffffffff8082111561083e5761083e610ba6565b604051601f8301601f19908116603f0116810190828211818310171561086657610866610ba6565b8160405283815286602085880101111561087e578485fd5b8360208701602083013792830160200193909352509392505050565b803560ff8116811461080e57600080fd5b600080604083850312156108bd578182fd5b6108c6836107f7565b9150602083013567ffffffffffffffff8111156108e1578182fd5b6108ed85828601610813565b9150509250929050565b60008060408385031215610909578182fd5b823567ffffffffffffffff81111561091f578283fd5b61092b85828601610813565b92505061093a602084016107f7565b90509250929050565b600080600060608486031215610957578081fd5b833567ffffffffffffffff81111561096d578182fd5b61097986828701610813565b9350506109886020850161089a565b9150604084013590509250925092565b6000806000606084860312156109ac578283fd5b833567ffffffffffffffff8111156109c2578384fd5b6109ce86828701610813565b9350506109dd6020850161089a565b91506109eb6040850161089a565b90509250925092565b60008151808452610a0c816020860160208601610b3b565b601f01601f19169290920160200192915050565b60008251610a32818460208701610b3b565b9190910192915050565b6001600160a01b0383168152604060208201819052600090610a60908301846109f4565b949350505050565b6001600160a01b0385168152608060208201819052600090610a8c908301866109f4565b60ff9485166040840152929093166060909101529392505050565b6000602080830181845280855180835260408601915060408160051b8701019250838701855b82811015610afb57603f19888603018452610ae98583516109f4565b94509285019290850190600101610acd565b5092979650505050505050565b8315158152606060208201526000610b2360608301856109f4565b905060018060a01b0383166040830152949350505050565b60005b83811015610b56578181015183820152602001610b3e565b83811115610b65576000848401525b50505050565b600181811c90821680610b7f57607f821691505b60208210811415610ba057634e487b7160e01b600052602260045260246000fd5b50919050565b634e487b7160e01b600052604160045260246000fdfea2646970667358221220d0da5e66e07887fc903485e8fe3a739f8e3a60c7b031d061db5e9c430a68964464736f6c63430008040033",
  "devdoc": {
    "kind": "dev",
    "methods": {},
    "version": 1
  },
  "userdoc": {
    "kind": "user",
    "methods": {},
    "version": 1
  },
  "storageLayout": {
    "storage": [
      {
        "astId": 25,
        "contract": "contracts/RoomBooking.sol:RoomBooking",
        "label": "roomlist",
        "offset": 0,
        "slot": "0",
        "type": "t_mapping(t_string_memory_ptr,t_mapping(t_uint8,t_array(t_struct(Room)8_storage)9_storage))"
      },
      {
        "astId": 31,
        "contract": "contracts/RoomBooking.sol:RoomBooking",
        "label": "whitelist",
        "offset": 0,
        "slot": "1",
        "type": "t_mapping(t_string_memory_ptr,t_mapping(t_address,t_bool))"
      },
      {
        "astId": 34,
        "contract": "contracts/RoomBooking.sol:RoomBooking",
        "label": "companies",
        "offset": 0,
        "slot": "2",
        "type": "t_array(t_string_storage)dyn_storage"
      }
    ],
    "types": {
      "t_address": {
        "encoding": "inplace",
        "label": "address",
        "numberOfBytes": "20"
      },
      "t_array(t_string_storage)dyn_storage": {
        "base": "t_string_storage",
        "encoding": "dynamic_array",
        "label": "string[]",
        "numberOfBytes": "32"
      },
      "t_array(t_struct(Room)8_storage)9_storage": {
        "base": "t_struct(Room)8_storage",
        "encoding": "inplace",
        "label": "struct RoomBooking.Room[9]",
        "numberOfBytes": "864"
      },
      "t_bool": {
        "encoding": "inplace",
        "label": "bool",
        "numberOfBytes": "1"
      },
      "t_mapping(t_address,t_bool)": {
        "encoding": "mapping",
        "key": "t_address",
        "label": "mapping(address => bool)",
        "numberOfBytes": "32",
        "value": "t_bool"
      },
      "t_mapping(t_string_memory_ptr,t_mapping(t_address,t_bool))": {
        "encoding": "mapping",
        "key": "t_string_memory_ptr",
        "label": "mapping(string => mapping(address => bool))",
        "numberOfBytes": "32",
        "value": "t_mapping(t_address,t_bool)"
      },
      "t_mapping(t_string_memory_ptr,t_mapping(t_uint8,t_array(t_struct(Room)8_storage)9_storage))": {
        "encoding": "mapping",
        "key": "t_string_memory_ptr",
        "label": "mapping(string => mapping(uint8 => struct RoomBooking.Room[9]))",
        "numberOfBytes": "32",
        "value": "t_mapping(t_uint8,t_array(t_struct(Room)8_storage)9_storage)"
      },
      "t_mapping(t_uint8,t_array(t_struct(Room)8_storage)9_storage)": {
        "encoding": "mapping",
        "key": "t_uint8",
        "label": "mapping(uint8 => struct RoomBooking.Room[9])",
        "numberOfBytes": "32",
        "value": "t_array(t_struct(Room)8_storage)9_storage"
      },
      "t_string_memory_ptr": {
        "encoding": "bytes",
        "label": "string",
        "numberOfBytes": "32"
      },
      "t_string_storage": {
        "encoding": "bytes",
        "label": "string",
        "numberOfBytes": "32"
      },
      "t_struct(Room)8_storage": {
        "encoding": "inplace",
        "label": "struct RoomBooking.Room",
        "members": [
          {
            "astId": 3,
            "contract": "contracts/RoomBooking.sol:RoomBooking",
            "label": "booked",
            "offset": 0,
            "slot": "0",
            "type": "t_bool"
          },
          {
            "astId": 5,
            "contract": "contracts/RoomBooking.sol:RoomBooking",
            "label": "partnerName",
            "offset": 0,
            "slot": "1",
            "type": "t_string_storage"
          },
          {
            "astId": 7,
            "contract": "contracts/RoomBooking.sol:RoomBooking",
            "label": "owner",
            "offset": 0,
            "slot": "2",
            "type": "t_address"
          }
        ],
        "numberOfBytes": "96"
      },
      "t_uint8": {
        "encoding": "inplace",
        "label": "uint8",
        "numberOfBytes": "1"
      }
    }
  }
}